:100000009FC0BAC0B9C0B8C0B7C0B6C0B5C06AC793
:10001000B3C02EC3B1C086C5AFC0D1C10AC225C20C
:1000200029C237C267C2A9C2D7C250726F67726154
:100030006D6D696E67204154383943783035310031
:10004000005EBCE2613FDD83C29C7E20A3FD1F41B8
:100050009DC3217FFCA2401E5F01E3BD3E6082DCA8
:10006000237D9FC1421CFEA0E1BF5D0380DE3C6298
:10007000BEE0025CDF81633D7C22C09E1D43A1FF88
:100080004618FAA427799BC584DA3866E5BB590778
:10009000DB856739BAE406581947A5FB7826C49A68
:1000A000653BD987045AB8E6A7F91B45C6987A2458
:1000B000F8A6441A99C7257B3A6486D85B05E7B948
:1000C0008CD2306EEDB3510F4E10F2AC2F7193CD38
:1000D000114FADF3702ECC92D38D6F31B2EC0E5028
:1000E000AFF1134DCE90722C6D33D18F0C52B0EE18
:1000F000326C8ED0530DEFB1F0AE4C1291CF2D7308
:10010000CA947628ABF517490856B4EA6937D58BF7
:100110005709EBB536688AD495CB2977F4AA4816E7
:10012000E9B7550B88D6346A2B7597C94A14F6A8D7
:10013000742AC896154BA9F7B6E80A54D7896B35C7
:1001400011241FBECFE5D2E0DEBFCDBF10E0A0E698
:10015000B0E0EEE2FFE003C0C89531960D92A03604
:10016000B107D1F710E0A0E6B0E001C01D92A63EB5
:10017000B107E1F702D0D9C643CF41D238D5789440
:1001800006D1FED5FDCF84E690E09BBD8ABD80E41C
:100190009CE90197F1F708951BBC1ABC80E49CE927
:1001A0000197F1F70895853039F08C3071F484E6C9
:1001B00090E09BBD8ABD03C0A89A1BBC1ABC80E41A
:1001C0009CE90197F1F7A89808951BBC1ABCA89A5E
:1001D0000895982F80916300891759F0992321F091
:1001E0001BBA8FEF8ABB03C01ABA80EC8BBB90930B
:1001F00063000895C49880E0ECDF80E0D4DFAF981E
:10020000AC98AB98AA98AE988DEF84BB80E29EE440
:100210000197F1F7109262001092610085E0C3DF50
:10022000AD9A80ED97E00197F1F7089580E0BBDF8C
:1002300080E0CFDFAF98C49A81E084BBAD98AC98E2
:10024000AB98AA98AE98089588B391E0892788BBA7
:10025000089588B392E0892788BB0895C098C19813
:100260000895482F50E0242F352F3695322F22271E
:1002700037952795881F8827881F822B242F352F95
:1002800022703070A5E0220F331FAA95E1F7822B70
:10029000242F352F24703070F3E0220F331FFA958E
:1002A000E1F7822B242F352F28703070220F331F57
:1002B000822B242F352F2071307035952795822B76
:1002C000242F352F2072307063E0359527956A957D
:1002D000E1F7822B4074507095E0559547959A95BB
:1002E000E1F7842B8BBB08950F931F9389B329B338
:1002F00049B369B3E9B3A9B309B399B3879588271B
:100300008795991F9927991F892B30E022703070AB
:10031000F5E0220F331FFA95E1F7822B50E044708D
:10032000507073E0440F551F7A95E1F7842B70E00D
:1003300068707070660F771F862BF0E0E071F070C8
:10034000F595E7958E2BB0E0A072B07023E0B595DF
:10035000A7952A95E1F78A2B10E00074107095E0BC
:10036000159507959A95E1F7802B1F910F910895A8
:10037000AF9A82E08A95F1F7AF98809161009091F1
:100380006200019690936200809361000895FF924D
:100390000F931F93CF93DF9319D4882309F429C1B6
:1003A0002BD3882309F425C190E0E82FF92F359746
:1003B000E830F10508F01CC1E35FFF4F09941ADF34
:1003C000AC98AB98AA98AE9882E08A95F1F78CDF4A
:1003D00010E08E3109F411E04DD2AF9A82E08A9597
:1003E000F1F7AF988091610090916200019690932F
:1003F00062008093610078DF813211F0813409F46A
:100400001F5F38D2AF9A82E08A95F1F7AF9880915A
:100410006100909162000196909362008093610068
:1004200063DF28D285E0B3D201DF123009F0E0C0EB
:100430002DC0C098C19ADEDEAC9AAB98AA98AE984F
:100440008CE0B1DE88EC90E00197F1F7AD9880E2A6
:100450009EE4E82FF92F3197F1F7AD9A0197F1F764
:1004600085E0A1DEE3DE86E0B3C0C4DE87E08FD2A4
:10047000C098B0C0DBDE88E08AD284E291E044D448
:1004800089E291E041D410926000C098C198C09A6E
:10049000AFC080916000882351F484E291E060E075
:1004A00070E044E650E0B0D381E080936000AC9807
:1004B000AB98AA9AAE9A82E08A95F1F78091610092
:1004C00090916200F8D110E002E00EDFD3D1AF9A34
:1004D000802F8A95F1F7AF9880916100909162002A
:1004E000019690936200809361001F5F103169F75D
:1004F00089E041C080916000882351F489E291E055
:1005000060E070E044E650E07FD381E080936000DB
:10051000AC98AB9AAA9AAE9A8CE045DE88EC90E053
:100520000197F1F781E055DE10E005E0C0EADFE079
:10053000A2E0FA2E2ED195DE802F8A95F1F7AD98A4
:10054000802F8A95F1F7AD9A8C2F9D2F0197F1F7A7
:10055000AF9A8F2D8A95F1F7AF98809161009091B5
:100560006200019690936200809361001F5F1031DA
:1005700009F7A1D18AE00BD23BC0C098C19A09D13A
:10058000182F38DE8CE00FDE88EC90E00197F1F751
:1005900010FF0DC0AC9AAB9AAA9AAE9AAD9885E0BE
:1005A0008A95F1F7AD9A80EA9FE00197F1F711FF84
:1005B0000DC0AC9AAB9AAA98AE98AD9885E08A9592
:1005C000F1F7AD9A80EA9FE00197F1F72FDE8BE01B
:1005D000DED1C09AC1980CC029DE84E291E094D3A8
:1005E00089E291E091D310926000C098C198C19ABD
:1005F0002DD1DF91CF911F910F91FF9008951F93FF
:100600001ABA80EC8BBB83E187BB8EEF88BB82E29A
:1006100081BB8CED82BB11E014BB83E085BB07D0AE
:1006200081E88FBD1EBD1BBC1ABC1F91089589E1D6
:1006300089B988ED8AB985E08093920010926400B0
:100640008BE990E090939500809394000895A62FF5
:10065000B72F9C91982720E430E0290F311DE22F1D
:10066000F32FC895802D3196C895902D8C930895C1
:100670001F920F920FB60F9211242F933F938F93D7
:100680009F93EF93FF938BB19CB19093C000209107
:100690006400253009F45EC084FD24C0903C61F400
:1006A00081E0809364008BE690E0909367008093F4
:1006B0006600109265004EC09B3D21F481E080935E
:1006C000650048C080916500882379F09D3D11F454
:1006D0008BED03C09C3D31F480EC8093C000109200
:1006E000650003C01092640035C0223031F0233021
:1006F000C1F0213079F582E020C083E0809364006E
:100700008091C000853218F084E28093C00080910F
:10071000C00090E083599F4F9093690080936800D8
:100720000EC0209166003091670080916800909122
:1007300069002817390719F485E0809364008091D7
:10074000C000E0916600F09167008193F09367002C
:10075000E0936600FF91EF919F918F913F912F91D0
:100760000F900FBE0F901F90189580916A0008950A
:10077000843238F490E083599F4F909367008093C0
:1007800066000895809166002BE630E0821B82505F
:100790000895E0916600F09167008191F093670001
:1007A000E09366000895E0916600F0916700819102
:1007B000F0936700E09366000895A0916600B09101
:1007C0006700EA2FFB2F219111964C913196F093FF
:1007D0006700E0936600942F80E030E0282B392BEF
:1007E000822F932F0895A0916600B0916700EA2FA1
:1007F000FB2F219111964C913196F0936700E09375
:100800006600942F80E030E0282B392B822F932F25
:100810000895CF93DF93582FA0916600B0916700A1
:10082000CA2FDB2F282F392FE22FF32F02C08991F7
:1008300081938E2F851B8617D0F3A60FB11DB09321
:100840006700A0936600DF91CF9108951092640035
:100850000895843238F490E085569F4F9093950028
:100860008093940008958091940029E930E0821BE0
:1008700082500895E0919400F091950090E0EF3B54
:10088000F90728F48193F0939500E093940008957C
:10089000A0919400B091950020E0AE3BB20750F4D7
:1008A000EA2FFB2F819311969C933196F09395003C
:1008B000E09394000895A0919400B091950020E0F9
:1008C000AE3BB20750F4EA2FFB2F819311969C9315
:1008D0003196F0939500E09394000895CF93DF93C1
:1008E000462F572F682F792FC0919400D0919500F3
:1008F00080E0CC3BD80700F5EC2FFD2F4193BB27C0
:1009000077FDBA95A72F962F852F89832E2F3F2FFE
:100910002F5F3F4F972F862FAA27BB278183872FD3
:100920009927AA27BB27E22FF32F81832E5F3F4F02
:100930003093950020939400DF91CF9108950F9309
:100940001F93082F292F162F409194005091950046
:1009500070E08FEB90E0861B970B84179507A0F053
:10096000A42FB52F922F202F392FE22FF32F02C063
:1009700081918D938E2F801B8117D0F3460F571FC7
:1009800050939500409394001F910F91089593E028
:10099000909392004091940050919500509397004D
:1009A0004093960029E930E0942F921B9250909347
:1009B00098008093990090939A00A22FB32F92E809
:1009C0000CC08D919827E92FF0E0E05CFF4FC895AF
:1009D000802D3196C895902D982FA417B50788F3D0
:1009E0009C9389E990E090939500809394001092F5
:1009F000930080EC8CB908950F931F93809164004D
:100A0000853011F020E02AC04091680050916900C3
:100A10002BE630E0842F821B825080936A00A22F45
:100A2000B32F92E80CC08D919827E92FF0E0E05C9D
:100A3000FF4FC895802D3196C895902D982F4A1755
:100A40005B0788F7992311F021E002C020916B0029
:100A50008DE690E09093670080936600822F81502E
:100A6000833008F05BC0223069F0233021F0213060
:100A700009F051C019C0A0919400B09195008AE28C
:100A800090E03CC010916A00609166007091670030
:100A90004091940050919500042FA62FB72F242F3A
:100AA000352FE22FF32F11C0E0919400F0919500C3
:100AB00030E0EF3BF30728F42193F0939500E093A7
:100AC000940081E027C08D9181938E2F801B811728
:100AD000D0F3812F90E0680F791F709367006093C7
:100AE0006600480F591F509395004093940082E090
:100AF00011C030E0AF3BB30708F42D93E82FF92F76
:100B00000196C895202D2223A1F7B0939500A093BC
:100B1000940083E03CDF1092640020E0822F1F915C
:100B20000F9108951F920F920FB60F9211242F93D9
:100B30003F938F939F93EF93FF9380919200833025
:100B400089F52091940030919500E22FF32F919137
:100B5000F0939500E0939400903C11F09B3DA1F43C
:100B600080919300882349F481E08093930020933F
:100B70009400309395009BED07C0903C11F09DEDE3
:100B800001C09CED109293009CB92091940030918B
:100B9000950080919600909197008217930758F4E2
:100BA00084E007C08BE990E09093950080939400D7
:100BB00085E080939200FF91EF919F918F913F91FB
:100BC0002F910F900FBE0F901F901895809192005B
:100BD000853019F080E090E0089590E08091640005
:100BE000853009F091E081E09827892F08951092CF
:100BF000E50013BE83E882BF82E088BF89B78260C8
:100C000089BF83E083BF08950F931F93CF93DF9332
:100C1000A82FB92FC62FD72F042F152F009709F40F
:100C20006EC020E030C0822F90E067E070E06BD1B2
:100C3000E82FF92FEE53FF4F808191818A179B0790
:100C400009F5822F90E067E070E05DD1E82FF92F81
:100C5000EE53FF4FD383C283822F90E067E070E0B2
:100C600052D1E82FF92FEE53FF4F15830483822FC3
:100C700090E067E070E047D1E82FF92FEE53FF4F87
:100C800016823DC02F5F8091E500281760F28091A9
:100C9000E5008530A0F58091E50090E067E070E028
:100CA00032D1E82FF92FEE53FF4FB183A08380910B
:100CB000E50090E067E070E026D1E82FF92FEE53D1
:100CC000FF4FD383C2838091E50090E067E070E03E
:100CD0001AD1E82FF92FEE53FF4F1583048380912B
:100CE000E50090E067E070E00ED1E82FF92FEE53B9
:100CF000FF4F16828091E5008F5F8093E500DF91C2
:100D0000CF911F910F910895CF93DF93C82FD92FC3
:100D100020E02FC0E22FF0E08E2F9F2F67E070E0E1
:100D2000F2D0A82FB92FAE53BF4F8D919C91119740
:100D30008C179D07E9F48091E50090E00197E81792
:100D4000F90781F08091E50090E0019767E070E09D
:100D5000DAD0E82FF92FEE53FF4F87E001900D9284
:100D60008150E1F78091E50081508093E50005C056
:100D70002F5F8091E500281768F2DF91CF910895E9
:100D80001F93CF93DF938091C100882311F410E06B
:100D9000A0C01092C10040E0A1E031C0842F90E0DB
:100DA00067E070E0B0D0E82FF92FEE53FF4F82815B
:100DB0009381892B59F4842F90E067E070E0A3D0F1
:100DC000E82FF92FEE53FF4FA68318C0842F90E031
:100DD00067E070E098D0E82FF92FEE53FF4F2281A3
:100DE000338121503040842F90E067E070E08BD059
:100DF000E82FF92FEE53FF4F338322834F5F80910B
:100E0000E500481758F2C3CF812F90E067E070E00B
:100E10007AD0E82FF92FEE53FF4F8681813009F009
:100E200057C0812F90E067E070E06DD0E82FF92F78
:100E3000EE53FF4FC081D181812F90E067E070E0D9
:100E400062D0E82FF92FEE53FF4F84819581892BD3
:100E500069F4812F90E067E070E055D0E82FF92F1A
:100E6000EE53FF4F808191814FDF2FC0812F90E0A3
:100E700067E070E048D0E82FF92FEE53FF4F16825D
:100E8000812F90E067E070E03ED0E82FF92FEE531D
:100E9000FF4F82819381892BC1F4812F90E067E01D
:100EA00070E031D0E82FF92FEE53FF4F24813581C8
:100EB00021503040812F90E067E070E024D0E82F8F
:100EC000F92FEE53FF4F33832283EC2FFD2F09952B
:100ED0001F5F8091E500181708F496CFDF91CF913E
:100EE0001F9108951F920F920FB60F9211248F93A6
:100EF00081E08093C10083E882BF8F910F900FBE85
:100F00000F901F9018955527002480FF02C0060EF1
:100F1000571F660F771F6115710521F0969587950C
:0E0F2000009799F7952F802D0895F894FFCF34
:00000001FF
